{
	"data": {
		"bytecode": {
			"linkReferences": {},
			"object": "608060405234801561001057600080fd5b5060b48061001f6000396000f3fe608060405260043610601c5760003560e01c8063770742c6146021575b600080fd5b604460048036036020811015603557600080fd5b50356001600160a01b03166046565b005b6040516001600160a01b038216903480156108fc02916000818181858888f19350505050158015607a573d6000803e3d6000fd5b505056fea26469706673582212206a87dd7b70a7418217b6e2fb9aa7d37907176dea79510d78954ebac00388bc2764736f6c634300060c0033",
			"opcodes": "PUSH1 0x80 PUSH1 0x40 MSTORE CALLVALUE DUP1 ISZERO PUSH2 0x10 JUMPI PUSH1 0x0 DUP1 REVERT JUMPDEST POP PUSH1 0xB4 DUP1 PUSH2 0x1F PUSH1 0x0 CODECOPY PUSH1 0x0 RETURN INVALID PUSH1 0x80 PUSH1 0x40 MSTORE PUSH1 0x4 CALLDATASIZE LT PUSH1 0x1C JUMPI PUSH1 0x0 CALLDATALOAD PUSH1 0xE0 SHR DUP1 PUSH4 0x770742C6 EQ PUSH1 0x21 JUMPI JUMPDEST PUSH1 0x0 DUP1 REVERT JUMPDEST PUSH1 0x44 PUSH1 0x4 DUP1 CALLDATASIZE SUB PUSH1 0x20 DUP2 LT ISZERO PUSH1 0x35 JUMPI PUSH1 0x0 DUP1 REVERT JUMPDEST POP CALLDATALOAD PUSH1 0x1 PUSH1 0x1 PUSH1 0xA0 SHL SUB AND PUSH1 0x46 JUMP JUMPDEST STOP JUMPDEST PUSH1 0x40 MLOAD PUSH1 0x1 PUSH1 0x1 PUSH1 0xA0 SHL SUB DUP3 AND SWAP1 CALLVALUE DUP1 ISZERO PUSH2 0x8FC MUL SWAP2 PUSH1 0x0 DUP2 DUP2 DUP2 DUP6 DUP9 DUP9 CALL SWAP4 POP POP POP POP ISZERO DUP1 ISZERO PUSH1 0x7A JUMPI RETURNDATASIZE PUSH1 0x0 DUP1 RETURNDATACOPY RETURNDATASIZE PUSH1 0x0 REVERT JUMPDEST POP POP JUMP INVALID LOG2 PUSH5 0x6970667358 0x22 SLT KECCAK256 PUSH11 0x87DD7B70A7418217B6E2FB SWAP11 0xA7 0xD3 PUSH26 0x7176DEA79510D78954EBAC00388BC2764736F6C634300060C00 CALLER "
		},
		"gasEstimates": {
			"creation": {
				"codeDepositCost": "36000",
				"executionCost": "87",
				"totalCost": "36087"
			},
			"external": {
				"transact(address)": "infinite"
			}
		},
		"methodIdentifiers": {
			"transact(address)": "770742c6"
		}
	},
	"abi": [
		{
			"inputs": [
				{
					"internalType": "address payable",
					"name": "recipient",
					"type": "address"
				}
			],
			"name": "transact",
			"outputs": [],
			"stateMutability": "payable",
			"type": "function"
		}
	]
}